:020000040000FA
:08000000803102288731F52F41
:10000A0008002000A300A101A2011E282008F9006F
:10001A00FA017908F0007A08F1007808FB007B08F9
:10002A00F20080312E20803101302000A1070030FB
:10003A00A23D21082307F9007908860087010108F3
:10004A00FA007A08A0002008031D2C282D280B2866
:10005A000800720803193228332838287208031D49
:10006A00372838283D2870088031052080317C28BF
:10007A007208033E86008701160001040319462808
:10008A00472864287208033E86008701403FF30030
:10009A00413FF400720A86008701403FF500413F64
:1000AA00F6007608803AF7007408803A7702031D52
:1000BA006028730875020318632864287C2870086E
:1000CA00F300720886008701720A8400850100081D
:1000DA000107F40074088600870173088100720A18
:1000EA00860087010130810741310318810A08001F
:1000FA002000AB002100261C832884288D2820009C
:10010A002B08FC007C08F800240880310620803186
:10011A002000A61B9128922897282608AA002508BD
:10012A00A9009928A901AA01A701A801AD28203090
:10013A00F0000030F10020002B08FC007C08F200DF
:10014A0080312E20803101302000A7070030A83DE1
:10015A002808803AFC002A08803A7C02031DB72846
:10016A0029082702031CBA28BB289C282100261824
:10017A00BF28C028C92820002B08FC007C08F800EA
:10018A002408803106208031200024088E316D2613
:10019A008031200029087007A4002A08713DA500B3
:1001AA00080022008E01083021008E0023008E01F3
:1001BA00F03021008D0023008D01043021008C00D5
:1001CA0023008D018231102280310F30F5008830F2
:1001DA00F6008E31A02680310230F9000030FA0094
:1001EA008F31B32780315930F5008830F6008E31CF
:1001FA00A02680310130F9000030FA008F31B32790
:10020A0080311F302100EC007130EB001E30890B69
:10021A000C29EB0B0C29EC0B0C2900008E31BD26A6
:10022A0080318E3154268031003A03191D291E2946
:10023A0037290F30F5008830F6008E31A02680313C
:10024A000230F9000030FA008F31B327803145308F
:10025A00F5008830F6008E31A02680318231E822FE
:10026A00803116290130F9000030FA008F31B327A6
:10027A0080310F30F5008830F6008E31A0268031AB
:10028A000230F9000030FA008F31B32780314F3045
:10029A00F5008830F6008E31A02680310230210028
:1002AA00EC000430EB00BA30890B5929EB0B5929C1
:1002BA00EC0B592900001329803102288E31BD2602
:1002CA0081310130F9000030FA008F31B3278131D2
:1002DA002C30F5008830F6008E31A02681310230AC
:1002EA00F9000030FA008F31B327813121005C0810
:1002FA002000EB0021005B082000EA008E313F2637
:10030A008131DF308F31212781316E30F50088301D
:10031A00F6008E31A026813133302000ED00BB304B
:10032A00EC00DF30890B9729EC0B9729ED0B972905
:10033A0000328E31BD2681310130F9000030FA00D9
:10034A008F31B32781313930F5008830F6008E318C
:10035A00A02681310230F9000030FA008F31B3272C
:10036A00813121005E082000EB0021005D08200099
:10037A00EA008E313F2681316130F5008830F6007F
:10038A008E31A026813133302000ED00BB30EC00E5
:10039A00DF30890BCE29EC0BCE29ED0BCE290032AA
:1003AA008E31BD2681310130F9000030FA008F31DB
:1003BA00B32781311E30F5008830F6008E31A02631
:1003CA0081310230F9000030FA008F31B3278131D0
:1003DA00210060082000EB0021005F082000EA00ED
:1003EA008E313F2681316630F5008830F6008E3135
:1003FA00A026813133302000ED00BB30EC00DF3025
:10040A00890B052AEC0B052AED0B052A00328E31E1
:10041A00BD26813108000030F000F1000030F20002
:10042A00F3000030F400F5000030F600F7008F31D9
:10043A007E2782310030F000F1000030F200F30034
:10044A000030F400F5000030F600F7008F317E2707
:10045A0082310230FC000430FB00BA30890B332AA7
:10046A00FB0B332AFC0B332A00320030F000F10078
:10047A000030F200F3000130F4000030F5000130E2
:10048A00F6000030F7008F317E2782310030F0000D
:10049A00F1000030F200F3000130F4000030F50002
:1004AA000130F6000030F7008F317E2782310030AC
:1004BA00F000F1000030F200F3000130F4000030E7
:1004CA00F5000130F6000030F7008F317E278231C7
:1004DA000030F000F1000030F200F3000130F400C7
:1004EA000030F5000030F600F7008F317E278231A8
:1004FA000030F000F1000030F200F3000130F400A7
:10050A000030F5000030F600F7008F317E27823187
:10051A000130F0000030F1000030F200F30000304A
:10052A00F400F5000030F600F7008F317E278231A3
:10053A000030F000F1000030F200F3000030F40067
:10054A00F5000030F600F7008F317E278231013046
:10055A00F0000030F1000130F2000030F30000300A
:10056A00F400F5000030F600F7008F317E27823163
:10057A000030F000F1000030F200F3000030F40027
:10058A00F5000030F600F7008F317E278231003007
:10059A00F000F1000130F2000030F3000130F40005
:1005AA000030F5000030F600F7008F317E278231E7
:1005BA000130F9000030FA008F31B32782318E31D1
:1005CA00BD268231080010302000EF003930EE00DD
:1005DA000D30890BEE2AEE0BEE2AEF0BEE2A0032D3
:1005EA0020000D08EE00EF016E082100E700200050
:1005FA006F082100E8000B302000EF002630EE00E3
:10060A005D30890B062BEE0B062BEF0B062B003207
:10061A0020000D08EE00EF016E082100E90020001D
:10062A006F082100EA00690E0F39E9006A0EF039F5
:10063A00E9046A0E0F39EA00F030EA1D0030EA04D4
:10064A0069086704E1006A086804E2000B302000C8
:10065A00EF002630EE005D30890B312BEE0B312B8B
:10066A00EF0B312B003220000D08EE00EF016E086F
:10067A002100E70020006F082100E8000B3020006D
:10068A00EF002630EE005D30890B492BEE0B492B2B
:10069A00EF0B492B003220000D08EE00EF016E0827
:1006AA002100E90020006F082100EA00690E0F39D5
:1006BA00E9006A0EF039E9046A0E0F39EA00F030EF
:1006CA00EA1D0030EA0469086704E3006A0868045E
:1006DA00E4000B302000EF002630EE005D30890B7D
:1006EA00742BEE0B742BEF0B742B003220000D08C9
:1006FA00EE00EF016E082100E70020006F082100DC
:10070A00E8000B302000EF002630EE005D30890B48
:10071A008C2BEE0B8C2BEF0B8C2B003220000D0850
:10072A00EE00EF016E082100E90020006F082100A9
:10073A00EA00690E0F39E9006A0EF039E9046A0E17
:10074A000F39EA00F030EA1D0030EA04690867044C
:10075A00E5006A086804E6006208DC006108DB005C
:10076A006408DE006308DD006608E0006508DF0053
:10077A0081316321823108002000DD004E088600A5
:10078A008701403FD000413FD10050088400510802
:10079A0085001200253A031DD32BD42B782C4E0842
:1007AA00860087010130810741310318810A21003F
:1007BA00A201A301A601A701FF30A400FF30A500F2
:1007CA0020004E0886008701403FD000413FD100FB
:1007DA0050088400510885001200643A0319F62B68
:1007EA00F72B082C4E0886008701403FD000413F76
:1007FA00D10050088400510885001200693A031D8F
:10080A00072C082C432C4E088600870101308107EB
:10081A0041310318810A4F088600870101088400C4
:10082A00850102308107003FD000013FD100500806
:10083A00D5005108D600890D893B8909D700D8000F
:10084A00D900DA00DB00DC005508B0005608B10018
:10085A005708B2005808B3005908B4005A08B5003E
:10086A005B08B6005C08B7005D08863187268331CD
:10087A0020003108CF003008CE009B2C4E0886009D
:10088A008701403FD000413FD10050088400510801
:10089A0085001200253A031D532C542C6D2C4E084A
:1008AA00860087010130810741310318810A25300A
:1008BA00F0000030F1005D08D0005008F2008031ED
:1008CA002E20833101302000CE000030CF009B2C37
:1008DA004E08860087010130810741310318810AD9
:1008EA00CE01CF019B2C4E0886008701403FD000E5
:1008FA00413FD10050088400510885000008D20009
:10090A00D3015208F0005308F1005D08D4005408DE
:10091A00F20080312E20833120004E0886008701A4
:10092A000130810741310318810A672C0800F2015E
:10093A002830860000308700473FF000F01FA62CC1
:10094A00A72CC82C2000A809A909AA09AB09AC0937
:10095A00AD09AE09AF09A80A031DC62CA90A031DD1
:10096A00C62CAA0A031DC62CAB0A031DC62CAC0A48
:10097A00031DC62CAD0A031DC62CAE0A031DC62CC8
:10098A00AF0AF201F20A2030860000308700473FA2
:10099A00F000F01FD12CD22CF12C2000A009A109C3
:1009AA00A209A309A409A509A609A709A00A031D62
:1009BA00F12CA10A031DF12CA20A031DF12CA30A92
:1009CA00031DF12CA40A031DF12CA50A031DF12C09
:1009DA00A60A031DF12CA70A2000200821042204DC
:1009EA00230424042504260427040319FD2CFE2CC1
:1009FA00512DF101F10A0D2DA035A10DA20DA30D66
:100A0A00A40DA50DA60DA70D0130F0007008F10781
:100A1A00A71F102D112D012D27082F02031D2F2D81
:100A2A0026082E02031D2F2D25082D02031D2F2D0A
:100A3A0024082C02031D2F2D23082B02031D2F2D02
:100A4A0022082A02031D2F2D21082902031D2F2DFA
:100A5A0020082802031C322D332D432D2008A8021A
:100A6A002108A93B2208AA3B2308AB3B2408AC3B3C
:100A7A002508AD3B2608AE3B2708AF3BA736A60C98
:100A8A00A50CA40CA30CA20CA10CA00C0130F10221
:100A9A00031D502D512D112D72080319552D562D58
:100AAA00742DA809A909AA09AB09AC09AD09AE09AF
:100ABA00AF09A80A031D742DA90A031D742DAA0AD9
:100ACA00031D742DAB0A031D742DAC0A031D742D6E
:100ADA00AD0A031D742DAE0A031D742DAF0A200042
:100AEA002808A0002908A1002A08A2002B08A300B0
:100AFA002C08A4002D08A5002E08A6002F08A70080
:100B0A000800F2012030860000308700473FF000DD
:100B1A00F01F902D912DB22D2000A009A109A20944
:100B2A00A309A409A509A609A709A00A031DB02DAE
:100B3A00A10A031DB02DA20A031DB02DA30A031D8D
:100B4A00B02DA40A031DB02DA50A031DB02DA60AB7
:100B5A00031DB02DA70AF201F20A283086000030E0
:100B6A008700473FF000F01FBB2DBC2DDF2D200072
:100B7A00A809A909AA09AB09AC09AD09AE09AF09C7
:100B8A00A80A031DDB2DA90A031DDB2DAA0A031DD2
:100B9A00DB2DAB0A031DDB2DAC0A031DDB2DAD0AD1
:100BAA00031DDB2DAE0A031DDB2DAF0A0130F00059
:100BBA007008F20673308600003087000830F000B3
:100BCA0000301E00F00BE62D20002008210422042C
:100BDA00230424042504260427040319F52DF62DDD
:100BEA00522EF101F10A052EA035A10DA20DA30D79
:100BFA00A40DA50DA60DA70D0130F0007008F10790
:100C0A00A71F082E092EF92DF335F40DF50DF60D53
:100C1A00F70DF80DF90DFA0D27082F02031D2F2ED7
:100C2A0026082E02031D2F2E25082D02031D2F2E06
:100C3A0024082C02031D2F2E23082B02031D2F2EFE
:100C4A0022082A02031D2F2E21082902031D2F2EF6
:100C5A0020082802031C322E332E442E2008A80214
:100C6A002108A93B2208AA3B2308AB3B2408AC3B3A
:100C7A002508AD3B2608AE3B2708AF3B7314A736C1
:100C8A00A60CA50CA40CA30CA20CA10CA00C013060
:100C9A00F102031D512E522E092E72080319562EE7
:100CAA00572E752EF309F409F509F609F709F8091B
:100CBA00F909FA09F30A031D752EF40A031D752EA4
:100CCA00F50A031D752EF60A031D752EF70A031D74
:100CDA00752EF80A031D752EF90A031D752EFA0AD8
:100CEA0073082000A0007408A1007508A200760805
:100CFA00A3007708A4007808A5007908A6007A0856
:100D0A00A70008002000BD003008C4003108C50053
:100D1A003208C6003308C7003408C8003508C900BD
:100D2A003608CA003708CB004430860000308700F6
:100D3A00473FB800B81BA22EA42E0130A52E0030C2
:100D4A002000B900BA013908C2003A08C3004208B3
:100D5A0043040319B12EB22ED02EC409C509C609FF
:100D6A00C709C809C909CA09CB09C40A031DD02E73
:100D7A00C50A031DD02EC60A031DD02EC70A031D9D
:100D8A00D02EC80A031DD02EC90A031DD02ECA0AA6
:100D9A00031DD02ECB0A2100A51BD42ED52ED92E69
:100DAA00FD30A605FF30A7052508803A2000B800C7
:100DBA0080303802031DE42E01302100240203187A
:100DCA00E72EE82EEE2E01302000BE000030BF00D4
:100DDA00F62E210025082000BF002100240820004B
:100DEA00BE00210023082000C100210022082000A3
:100DFA00C00042084304031D032F042F092F2100BA
:100E0A00261D082F092F0E2FFF302000C007FF30A4
:100E1A00C13D1F302000CC000030CD002100C701A9
:100E2A007E2FFF302000CC07FF30CD3D0A30A000D6
:100E3A00A101A201A301A401A501A601A7014408D9
:100E4A00A8004508A9004608AA004708AB004808B8
:100E5A00AC004908AD004A08AE004B08AF00843127
:100E6A009C24863120002108F4002008F3008E31EA
:100E7A00862686317308303E2000B8004C08A83E0A
:100E8A008600870138088100FF30BE07FF30BF3D6A
:100E9A00FF30C007FF30C13D0A30A000A101A20106
:100EAA00A301A401A501A601A7014408A8004508B9
:100EBA00A9004608AA004708AB004808AC00490840
:100ECA00AD004A08AE004B08AF0085318625863151
:100EDA0020002008C4002108C5002208C6002308F3
:100EEA00C7002408C8002508C9002608CA00270820
:100EFA00CB0020004D08803AB80080303802031D2C
:100F0A00882F01304C02031C8B2F8C2FB92F200005
:100F1A004408450446044704480449044A044B0467
:100F2A00031D982F992F162F3F08803AB80080305A
:100F3A003802031DA22F01303E020318A52FA62F47
:100F4A00162F20004108803AB80080303802031D6D
:100F5A00B02F01304002031CB32FB42FB92F210048
:100F6A00A618B82FB92F162F200042084304031DD4
:100F7A00BF2FC02FC52F2100261DC42FC52FE12F3B
:100F8A00FF302000CC07FF30CD3D42084304031D4B
:100F9A00CF2FD02FD52F2B30BB000030BC00D92F3C
:100FAA002D30BB000030BC003B08B8004C08A83EFE
:100FBA00860087013808810020004C08A83EB80046
:100FCA003808A4004108A6004008A5003D08803161
:100FDA007D20863120002508B1002408B0000800D1
:100FEA00A03084000030850028308E3139268731C0
:100FFA0020008031D628443461347434613420347A
:10100A006F346E34203450344F34523454344234B2
:10101A003A340034533479347334743465346D3467
:10102A0020347334743461347434753473343A3418
:10103A0000344134693472342034503472346534A3
:10104A00733473347534723465343A340034543436
:10105A0065346D3470346534723461347434753483
:10106A00723465343A340034573469346E34643433
:10107A002034533470346534653464343A3400347B
:10108A0052344534433445344934563449344E3461
:10109A00473400344E344F342034533449344734BF
:1010AA004E3441344C34003442344F344F34543487
:1010BA0049344E344734003420344D3450344834A3
:1010CA00003420346B3450346134003425346434B1
:0610DA000034463400342E
:101C7200640080010131890B3A2E00346B30200060
:101C8200E6008830E7006B08E9006A08E800D13016
:101C92008E31FD268E31D130F5000030F6008E31C6
:101CA200A0268E31080020008E19582E592E6B2E38
:101CB2000D1E5C2E5D2E6B2E8D1A602E612E6B2EEC
:101CC2000D1B642E652E6B2E8D1B682E692E6B2EBE
:101CD20001306C2E00300800F4007408F200720823
:101CE200F300772E0130F2007208F40774088600C0
:101CF20087010108031D7E2E7F2E732E7308740246
:101D0200F000F101F01BF10308007408803AF500BD
:101D120080307502031D8F2E013073020318922E3C
:101D2200932E9F2E7309F5007409F600F50A031924
:101D3200F60A7508F3007608F4009F2E0800F801F1
:101D4200F901B12E7508780784007608793D85007F
:101D520000088F3121278E310130F8070030F93D1C
:101D62007508780784007608793D85001200031D06
:101D7200BB2EBC2EA32E08000030F000F100003074
:101D8200F200F3000030F400F5000030F600F70036
:101D92008F317E278E310030F000F1000030F200EA
:101DA200F3000030F400F5000130F6000030F700D7
:101DB2008F317E278E310800F000701CE12EE22E5A
:101DC200E52E20000E16E72E20000E12F01CEA2E41
:101DD200EB2EED2E8E16EE2E8E12701DF12EF22EA1
:101DE200F42E0E17F52E0E13F01DF82EF92EFB2EE3
:101DF2008E17FC2E8E1308002100CB006830FD00E8
:101E02007D08CA004B08FD007D08CC00CD01CE0143
:101E1200CF01D00120006708DF006608DE00CA306B
:101E2200FD007D08E000CC308F314D278E3121003E
:101E32004D084B07FD007D088600870181010800DF
:101E4200F40074080F39F1007108F2007408F039D7
:101E5200F1007108F30020000E147308F100043041
:101E6200F136890B312F71088E31DD268F3120003A
:101E72008E14C8300032890B3B2F20008E1072085E
:101E82008E31DD268F3120008E14C8300032890B4E
:101E9200472F20008E1008002000E3005F08E500B5
:101EA2005E08E4002100A001A1016B2F6430E10073
:101EB2006108CE006008E2006208CF006308833147
:101EC200C1238F3120004E082100A00720004F08B7
:101ED2002100A13D200064088400650885001200ED
:101EE200031D742F752F572F210021082000DF00BA
:101EF200210020082000DE00080020000E107003E0
:101F02007104031D852F862F882F8E17892F8E131C
:101F120072037304031D8E2F8F2F912F0E17922F92
:101F22000E1374037504031D972F982F9A2F8E1684
:101F32009B2F8E1276037704031DA02FA12FA32FB0
:101F42000E16A42F0E128E14C8300032890BA62F43
:101F520020008E100330F8009830890BAE2FF80B5A
:101F6200AE2F080079037A04031DB82FB92FD82F9A
:101F72000130F0000030F1000030F200F3000030D8
:101F8200F400F5000030F600F7008F317E278F3124
:101F92000030F000F1000030F200F3000030F400F5
:101FA200F5000030F600F7008F317E278F310230C6
:101FB20079067A04031DDE2FDF2FFF2F0130F00098
:101FC2000030F1000130F2000030F3000030F40084
:101FD200F5000030F600F7008F317E278F31003098
:101FE200F000F1000030F200F3000030F400F500E0
:0E1FF2000030F600F7008F317E278F31080097
:020000040001F9
:06000E00FA1FF33FFF1F83
:00000001FF
